:100000000C9495010C94C6010C94C6010C94C60185
:100010000C94C6010C94C6010C94C6010C94C60144
:100020000C94C6010C94C6010C94C6010C94C60134
:100030000C94C6010C94C6010C94C6010C94C60124
:100040000C94C6010C94C6010C94C6010C94C60114
:100050000C94C6010C94C6010C94C6010C94F010CB
:100060000C94C6010C94C9040C949F040C94C60112
:100070000C94C6010C94C6010C94C6010C94C601E4
:100080000C94C6010C94C6010C94C6010C94C601D4
:100090000C94C6010C94C6010C94C6010C94C601C4
:1000A0000C94C6010C94C6010C94C6010C94C601B4
:1000B0000C94C6010C94C6010C94C6010C94C601A4
:1000C0000C94C6010C94C6010C94C6010C945D04FA
:1000D0000C9433040C94C6010C94C6010C94C60114
:1000E0000C94C601BA07B207E307C207BE07890727
:1000F000AC074F075D1060104F105310571097104A
:10010000641068106E10721076107C1080108410CD
:1001100097108A108E10921007634236B79BD8A7AB
:100120001A39685618AEBAAB558C1D3CB7CC57631C
:10013000BD6DEDFD753EF6177231BF000000803FCA
:1001400008000000BE922449123EABAAAA2ABECDE6
:10015000CCCC4C3E00000080BEABAAAAAA3E000058
:100160000000BF000000803F000000000008417850
:10017000D3BB4387D1133D190E3CC3BD4282AD2B87
:100180003E68EC8276BED98FE1A93E4C80EFFFBE7F
:1001900001C4FF7F3F00000000000C9472100C941B
:1001A00060100C946E100C947E020C94C9010C9497
:1001B00021020C9480100C94AC070C944A020C940D
:1001C0004F070C947C100C9464100C948A100C94BF
:1001D00084100C9468100C94E3070C94CB020C94DC
:1001E00092100C9457100C9497100C9430020C94AD
:1001F000B2070C9437030C94F3010C94C5180C94BB
:1002000076100C9453100C94BE070C94C2070C94F7
:100210004F100C945D100C94BA070C948E100C9433
:10022000890700002100240027002A002D0030004B
:10023000330001010000040107010A01000022004F
:10024000250028002B002E003100340002010000A0
:10025000050108010B010505050507050808080843
:10026000020202020A0A080804040404010101014E
:100270000101010103030303030303030407070749
:100280000C0C0C0C0C0C0C0C0202020206060606EE
:10029000060606060B0B0B0B0B0B0B0B01021020BB
:1002A00020080810204010204080020102010804AC
:1002B0000201010204081020408080402010080440
:1002C0000201800402018040201008040201080499
:1002D00002010102040810204080010204081020DD
:1002E000408000000A0B02090C0D0E0807030401F0
:1002F00000000000000000000000000000000000FE
:1003000000000000000000000000000000001211CA
:1003100010000000000000000000000000000000CD
:100320000000000000000000C51811241FBECFEF20
:10033000D1E2DEBFCDBF00E00CBF2EE0A6E6B5E007
:1003400001C01D92A930B207E1F715E0A0E0B2E0CC
:10035000EAE2FFE300E00BBF02C007900D92A63671
:10036000B107D9F711E0C5E9D1E000E006C0219757
:100370000109802FFE010E94B41AC439D10780E020
:100380000807A9F70E945D150C94931F0C940000B8
:100390000895CF92DF92EF92FF920F931F93CF9326
:1003A000DF936C017A018B01C0E0D0E0CE15DF0550
:1003B00081F0D8016D918D01D601ED91FC910190F4
:1003C000F081E02DC6011995892B11F02196EECF11
:1003D0007E01C701DF91CF911F910F91FF90EF90A8
:1003E000DF90CF900895FC01218D328D838D948D07
:1003F000A901481B590BCA01917008952091A005CD
:100400003091A1058091A2059091A305281B390B7D
:10041000317081E0232B09F480E008952091FF07DB
:10042000309100088091010890910208281B390B37
:10043000317081E0232B09F480E0089580E090E0A2
:100440000895FC01558D468D252F30E0842F90E0D6
:10045000821B930B541710F0CF96089501970895BF
:10046000FC01218D328D838D948D2817390779F009
:10047000A38DB48DAE0FBF1F5F968C91238D348DED
:100480002F5F3F4F3170348F238F90E008958FEFAF
:100490009FEF0895FC01218D328D838D948D281757
:1004A000390739F0838D948DE80FF91F878D90E01F
:1004B00008958FEF9FEF0895FC01868DDF01A80F4F
:1004C000B11DA15EBD4F2C91868D90E001968F737A
:1004D0009927868FA689B7892C93A089B1898C9199
:1004E000837080648C93958D868D981306C00288E6
:1004F000F389E02D80818F7D80830895EF92FF92B4
:100500000F931F93CF93DF93EC0181E0888F9D8D34
:100510008E8D981305C0E889F989808185FD26C0F4
:10052000F62E0D8D10E00F5F1F4F0F731127E02E79
:100530008E8DE8120CC00FB607FCFACFE889F98956
:10054000808185FFF5CFCE010E945C02F1CF8D8DB9
:10055000FE01E80FF11DE15EFD4FF0829FB7F894B8
:100560000D8FEA89FB89808180620AC09FB7F89469
:10057000EE89FF896083E889F989808183708064CE
:1005800080839FBF81E090E0DF91CF911F910F9119
:10059000FF90EF900895CF93DF93EC01888D88232F
:1005A000C9F0EA89FB89808185FD05C0A889B989E0
:1005B0008C9186FD0FC00FB607FCF5CF808185FFBB
:1005C000F2CFA889B9898C9185FFEDCFCE010E9429
:1005D0005C02E7CFDF91CF91089580E090E0892B16
:1005E00021F00E940E02811121C080E090E0892B51
:1005F00041F080E090E0892B21F00E940000811101
:1006000018C080E090E0892B21F00E94FE0181114A
:1006100013C080E090E0892BA1F080E090E0892B6E
:1006200081F00E94000081110AC008950E9400001C
:10063000DCCF0E940000E5CF0E940000EACF0C94BE
:1006400000000895CF93DF93EC0188819981DC014C
:10065000ED91FC910190F081E02D19952A813B816B
:10066000820F931F9B838A83DF91CF910895FC01B2
:1006700026813781620F731F8481958186179707C2
:1006800038F08281938177836683820F931F089568
:1006900080E090E008958091760581110BC0109262
:1006A000730510927205109275051092740581E021
:1006B0008093760582E795E008950F931F93CF937B
:1006C000DF93EC0188819981009729F02A813B8191
:1006D0002617370788F48B016F5F7F4F0E94901EAB
:1006E000009761F0998388831B830A832C813D8165
:1006F000232B11F4FC01108281E001C080E0DF9126
:10070000CF911F910F910895EF92FF920F931F9336
:10071000CF93DF93EC017B018A01BA010E945D0354
:100720002881398181110DC02115310519F0C901C8
:100730000E94071E198218821D821C821B821A8247
:1007400006C01D830C83B701C9010E948C1FCE0116
:10075000DF91CF911F910F91FF90EF900895611558
:10076000710579F0FB0101900020E9F73197AF01A5
:10077000461B570BDC01ED91FC910280F381E02DCB
:10078000199480E090E00895CF93DF93EC01888185
:1007900099810E94AF032A813B81820F931F9B8323
:1007A0008A83DF91CF9108950F931F93CF93DF93A7
:1007B000CDB7DEB766970FB6F894DEBF0FBECDBFDC
:1007C0009C01CB011E8AFE0176960AE010E0B8017A
:1007D0000E947E1A805D8293CB010097C1F7BF0112
:1007E000C9010E94C40366960FB6F894DEBF0FBE1F
:1007F000CDBFDF91CF911F910F910895FF920F937D
:100800001F93CF93DF936115710549F461EB74E099
:10081000DF91CF911F910F91FF900C94C4038B0136
:10082000EC0162E2CE010E942203F80161918F0186
:10083000662351F0E2EAF4E0F080FF2099F3818131
:10084000681759F03296F8CF62E2CE01DF91CF916E
:100850001F910F91FF900C9422036CE5CE010E9432
:1008600022036F2DDFCF1F920F920FB60F9211242C
:100870000BB60F922F933F934F935F936F937F939A
:100880008F939F93AF93BF93EF93FF9387E895E088
:100890000E945C02FF91EF91BF91AF919F918F9168
:1008A0007F916F915F914F913F912F910F900BBE70
:1008B0000F900FBE0F901F9018951F920F920FB6BA
:1008C0000F9211240BB60F922F934F935F938F9338
:1008D0009F93EF93FF93E0919705F09198058081A6
:1008E000E0919D05F0919E0582FD1AC020818091C6
:1008F000A0059091A105019691704091A20550919B
:10090000A3058417950769F0E091A005F091A10572
:10091000E957FA4F278F9093A1058093A00501C056
:100920008081FF91EF919F918F915F914F912F91D6
:100930000F900BBE0F900FBE0F901F9018951F9237
:100940000F920FB60F9211240BB60F922F933F9375
:100950004F935F936F937F938F939F93AF93BF93C7
:10096000EF93FF9386EE97E00E945C02FF91EF9178
:10097000BF91AF919F918F917F916F915F914F91B7
:100980003F912F910F900BBE0F900FBE0F901F90B5
:1009900018951F920F920FB60F9211240BB60F925B
:1009A0002F934F935F938F939F93EF93FF93E091D8
:1009B000F607F091F7078081E091FC07F091FD07C1
:1009C00082FD1AC020818091FF0790910008019656
:1009D000917040910108509102088417950769F0C1
:1009E000E091FF07F0910008EA51F84F278F9093AC
:1009F00000088093FF0701C08081FF91EF919F91D4
:100A00008F915F914F912F910F900BBE0F900FBE62
:100A10000F901F9018950F931F93FC0180858823DA
:100A200011F1918591111CC09FB7F89440917E05FA
:100A300050917F0560918005709181059FBF048171
:100A4000158126813781401B510B620B730B00818E
:100A5000118122813381401751076207730718F013
:100A60001086118601C080E01F910F91089577FDD7
:100A700007C0AB01770F660B770B24E030E00AC0AC
:100A800044275527461B570B052E000C660B770B8A
:100A900025E030E0FC01318320834283538364836B
:100AA000758381E0089566EB74E086EE97E00E941E
:100AB000AF036CEC74E086EE97E00C94AF03FC019E
:100AC000808191818330910520F4019708F440C022
:100AD0000BC08530910528F0059799F562817381E7
:100AE0002BC08281938108950280F381E02D30979D
:100AF00079F18081843779F18B3229F08D3221F4BC
:100B0000319691E002C0319690E060E070E04AE0FA
:100B1000819120ED280F2A3068F4469F9001479F6D
:100B2000300D1124682F880F770B60537109620F05
:100B3000731FEECF992391F088279927861B970B77
:100B4000089562817381848195810E94AF1B06C0E4
:100B500080E090E0089581E090E00895CB01089551
:100B6000FC01A081B1818C918D3051F024F4895029
:100B70008230B8F505C0803219F08F3219F008952F
:100B800011962CC011968C9111978A3219F08F32E0
:100B9000D1F008951196B183A083A081B181CD01D8
:100BA00001969183808311968C9111978823C9F0C7
:100BB0008A3299F712968C9112978F3271F71396A9
:100BC0000DC08A3071F2A081B181CD01019691836F
:100BD000808311968C918111F4CF03C0B183A083DF
:100BE000C0CF08951F93CF93DF93EC01162F0E947F
:100BF000B005E881F9818081181305C03196F98329
:100C0000E88381E001C080E0DF91CF911F910895DA
:100C1000EF92FF920F931F93CF93DF938C01DC0130
:100C20001496CD91DC911597EA80FB808E819F818F
:100C3000E80EF91EC80102960E94B005D80112966E
:100C4000ED91FC91139780818732A9F1823299F15D
:100C500090ED980F9A3078F091EA980F9C3158F007
:100C60009FEB980F9A3138F08B3229F093ED980F63
:100C7000923008F061C0F801228133812F5F3F4F2D
:100C8000338322832E813F81A9014F5F5F4F6C81A7
:100C90007D816417750740F06A817B81FB01E20F5B
:100CA000F31F5F834E838083D8011296ED91FC91F0
:100CB00013978081CDCF3196D8011396FC93EE9394
:100CC0001297D8011296ED91FC9113979081992378
:100CD00099F19F012F5F3F4F13963C932E931297EC
:100CE000981751F19C35A9F49181A6EAB4E02C91B2
:100CF000222339F0921303C011969C9102C01296E0
:100D0000F6CF9923C9F03296D8011396FC93EE934F
:100D100012972E813F81A9014F5F5F4F6C817D81CA
:100D20006417750770F26A817B81FB01E20FF31F84
:100D30005F834E839083C5CF8E819F819C012F5FFF
:100D40003F4F4C815D814217530750F04A815B81D0
:100D5000FA01E80FF91F3F832E831082C70102C0FA
:100D600080E090E0DF91CF911F910F91FF90EF9085
:100D70000895FC0182819381009761F061157105EE
:100D800031F0FC018081918161507109F5CF0296AB
:100D90000C945F0580E090E008950F931F93CF932C
:100DA000DF938B01FC01C281D3812097A9F06A8176
:100DB0007B810115110519F06115710521F460178A
:100DC000710731F409C0C8010E94831F892B21F0EB
:100DD0000990D881C02DE9CFCE01DF91CF911F912D
:100DE0000F9108950F931F93CF93DF938C01EB0125
:100DF0006BE7CE010E942203F801028113810115E5
:100E00001105D1F0F80162817381CE010E94FE03C9
:100E10006AE3CE010E942203BE01C80104960E942B
:100E20002407F801008111810115110529F06CE2F8
:100E3000CE010E942203E3CF6DE7CE01DF91CF9177
:100E40001F910F910C9422032F923F924F925F9229
:100E50006F927F928F929F92AF92BF92CF92DF92CA
:100E6000EF92FF920F931F93CF93DF93CDB7DEB72F
:100E70006C970FB6F894DEBF0FBECDBFDC01ED91CD
:100E8000FC9111973197E830F10508F038C21B0149
:100E90008C018827EE58FF4F8F4F0C94B41AFD0138
:100EA00082809380A480B580A5019401C501B4011E
:100EB0000E945A19882319F06AED74E092C020E06C
:100EC00030E0A901C501B4010E945A1987FF08C08A
:100ED0006DE2C1010E942203B7FAB094B7F8B09452
:100EE00020E030E0A901C501B4010E945A1988230D
:100EF00009F47BC0A5019401C501B4010E94D11A77
:100F0000A50194010E945A1981116FC061EE74E02D
:100F100068C012960D911C9113976BE5C1010E9458
:100F20002203F801028113810115110581F0B1013D
:100F3000C80102960E942407D8010D911C91011549
:100F4000110529F06CE2C1010E942203EDCF6DE58D
:100F5000C1010E942203D3C1FD01828193810E94BD
:100F6000F206CDC112966D917C911397C1010E943A
:100F7000FE03C5C1FD016281738133C06DE2C10111
:100F80000E942203D80112966D917D918D919C91C2
:100F900015971E8A8E010A5E1F4F2AE0C22ED12CA1
:100FA000E12CF12CA70196010E94921A605DF801D4
:100FB00062938F01B901CA0161157105810591051F
:100FC00089F7BF010EC0FD0182819381A481B581A3
:100FD000892B8A2B8B2B19F464ED74E002C06FEC23
:100FE00074E0C1010E94C4038AC120E836E948E1E7
:100FF0005BE4C501B4010E94E51B87FF4AC100E222
:1010000010E0E5E0DE2E188E1F8A20E030E0A90116
:10101000C501B4010E94E51B1816B4F52CEA35ECA5
:1010200047E257E3C501B4010E945A19181664F14A
:10103000BFEFDB1649F1ED2DF4E0EF027001112452
:10104000F701EA5FFD4FA501940160817181828102
:1010500093810E94E51B18169CF4F701EA5CFD4F92
:101060002081318142815381C501B4010E94C019A0
:101070004B015C018F89988D801B910B988F8F8B12
:1010800015950795DA94D4CFC501B4010E94B61B1B
:101090006B017C012B013C0106E080E492E4AFE0AF
:1010A000B0E0898F9A8FAB8FBC8F102F01509AE0E0
:1010B0004916510461047104C8F0698D7A8D8B8DD5
:1010C0009C8D2AE030E040E050E00E94921A298F87
:1010D0003A8F4B8F5C8FC301B2012AE030E040E0D1
:1010E00050E00E94921A29013A01DFCFC701B601F0
:1010F0000E945F199B01AC01C501B4010E94D01A86
:101100004B015C01698D7A8D8B8D9C8D0E945F19DE
:101110009B01AC01C501B4010E94C0192B013C0127
:101120000E94B61B4B015C010E945F199B01AC0140
:10113000C301B2010E94D01A9B01AC010E94D11AD6
:101140000E94B61B860E971EA81EB91E898D9A8D09
:10115000AB8DBC8D88169906AA06BB06F8F09FEFEA
:10116000C91AD90AE90AF90AAF89B88DAB2B99F0E7
:10117000BAE0CB16D104E104F10468F0EF89F88DF0
:101180003196F88FEF8B812C912C5401C12CD12CEE
:101190007601C39403C0812C912C54015AE0452E52
:1011A000512C612C712CC501B401A30192010E9444
:1011B000921A672B682B692B31F4111624F449011C
:1011C0005A011150F0CF1E8ACE0146969A8F898F10
:1011D0004AE0442E512C612C712CC701B601A301A9
:1011E00092010E94921A605DA98DBA8D6E93BA8F9A
:1011F000A98F69017A01C114D104E104F10469F7EE
:10120000BD01C1010E94C403112329F1188A012FD5
:101210006E01B0E1CB0ED11C76013AE0432E512C89
:10122000612C712C015068F0C501B401A301920139
:101230000E94921A605DF60162936F0149015A01A2
:10124000F1CFB701611B71098EE2DB018E93BD0105
:10125000C1010E94C403EF89F88DF7FF0BC06EED4A
:1012600074E0C1010E94C4036F89788D7195619506
:1012700071090BC08F89988D892B09F440C065E6F0
:10128000C1010E9422036F89788DC1010E94D4039D
:1012900036C08EE4C82E82E0D82E9EE1E92E92E080
:1012A000F92E00E210E0188E1F8AA5019401D601E4
:1012B0009E918E917E916E916D010E945A19181621
:1012C0008CF0F7012489358946895789C501B40115
:1012D0000E94C0194B015C018F89988D800F911F6E
:1012E000988F8F8B1595079594E0E91AF108A6E37E
:1012F000CA16A2E0DA06C9F6DD24DA9486CE6C9628
:101300000FB6F894DEBF0FBECDBFDF91CF911F9116
:101310000F91FF90EF90DF90CF90BF90AF909F9094
:101320008F907F906F905F904F903F902F90089597
:101330000E94CD0621E0892B09F420E0822F089538
:1013400080916A0581110BC01092670510926605A5
:10135000109269051092680581E080936A0586E61F
:1013600095E008950E94CD06009749F0FC01248184
:1013700035812630310519F48681978108950C94C2
:10138000A0090F931F93CF93DF93EC016A817B81B8
:10139000888199810E94B209DC011296ED91FC913D
:1013A000139700E010E0309731F00F5F1F4F01906E
:1013B000F081E02DF8CF6A817B81888199810E943C
:1013C000CD06009749F0FC01248135812730310595
:1013D00019F48681978102C00E944B03DC011296AA
:1013E000ED91FC91139780E090E0309729F0019601
:1013F0000190F081E02DF9CF800F911FDF91CF9107
:101400001F910F910895DB01109749F0ED91FC9128
:1014100011970190F081E02DBC01CD01199480E07D
:1014200090E00895CF93DF93EC01688179818AE0A1
:1014300090E00E94030A009729F0FC0111821082BB
:1014400015821482EA81FB81309751F0208131812D
:101450002115310511F0F901F9CF9183808302C084
:101460009B838A83DF91CF910895EF92FF920F9330
:101470001F93CF93DF93FC0180819181009741F40A
:10148000DF91CF911F910F91FF90EF900C94A009E5
:10149000EB018F010E946F127C012097F9F0BE01D1
:1014A000C8010E94CD06009741F4C8010E94120AAB
:1014B0000097A1F0FC01D383C283F7012081318121
:1014C0002115310519F440E050E003C0970146E0D2
:1014D00050E0FC015583448337832683C701DF91A5
:1014E000CF911F910F91FF90EF900895CF93DF93CD
:1014F000EC016881798188E090E00E94030A0097FE
:1015000029F0FC011182108213821282EA81FB8190
:10151000309751F0208131812115310511F0F90109
:10152000F9CF9183808302C09B838A83DF91CF911F
:101530000895CF93DF93EC01BC0184E090E00E941A
:10154000030A009741F0FC01D183C0831382128209
:10155000DF91CF910895DF91CF910C944B03AF921F
:10156000BF92CF92DF92EF92FF920F931F93CF9390
:10157000DF9300D000D0CDB7DEB77C01FC018681BF
:10158000882309F456C08150F70186838191919197
:101590006F010E94990A8C016BE7C6010E94F20557
:1015A000882309F446C06DE7C6010E94F205811147
:1015B0003AC0C7010E9408065C01892BD1F16AE399
:1015C000C6010E94F2058823A1F11A821982BE0188
:1015D0006F5F7F4FC7010E94AD14882351F1B501A1
:1015E000C8010E94CD06009741F4C8010E94120A6A
:1015F0000097F9F0FC01B382A28226E0FE01319649
:10160000DC01149601900D922A95E1F76DE7C60171
:101610000E94F205811107C06CE2C6010E94F2052A
:101620008111C7CF06C0F70186818F5F8683C8010D
:1016300002C00E944B0326960FB6F894DEBF0FBE81
:10164000CDBFDF91CF911F910F91FF90EF90DF9071
:10165000CF90BF90AF9008952F923F924F925F929C
:101660006F927F928F929F92AF92BF92CF92DF92B2
:10167000EF92FF920F931F93CF93DF93CDB7DEB717
:10168000CE50D4400FB6F894DEBF0FBECDBF2DB6FE
:101690003EB69E01275F3F4F3C832B832EE432E012
:1016A0003E832D8318861F8226E732E03A83298302
:1016B000DC018D919C91009711F480EB94E08E01F8
:1016C000095A1D4F9E012F5F3F4FF8013183208340
:1016D00093838283358324838AE08683C8010E94B2
:1016E000AF0A7C016AEE74E00E949809882389F0B1
:1016F0008EEF8093C30A83E08093C40A1092C50AD8
:1017000088E08093C60A0E94B21383E090E00E94B2
:10171000FB1261EF74E0C7010E949809882301F170
:1017200061EF74E0C7010E94CD06009771F0049646
:101730000E945F05892B49F084E2EEE4F2E0D801D3
:1017400001900D928A95E1F705C084E2D8011D92BF
:101750008A95E9F740E450E061E0C8010E94551421
:1017600068EF74E0C7010E949809882309F47BC0E0
:1017700068EF74E0C7010E94B209DC011296ED9196
:10178000FC9113973097E9F1828193818330910521
:1017900018F40197B0F109C08530910520F0059744
:1017A00041F5D48024C0D48030C00480F581E02D80
:1017B000309739F18081843731F18B3229F08D32C5
:1017C00021F4319691E002C0319690E0D12C219124
:1017D00080ED820F8A3048F4DD0C8D2D880F880F44
:1017E0008D0D8053D22ED80EF2CF992371F0D19463
:1017F0000CC064817581868197810E94B61BD62EAC
:1018000004C0D12C02C0DD24D39468EF74E0C7017A
:101810000E94B20961E070E00E94B90660E070E1E8
:101820000E947E1AD092C30A29E02093C40A109223
:10183000C50A23E02093C60A24E72093C70A109222
:10184000C80A8093C90A9093CA0A092E000CAA0BF1
:10185000BB0BB093CB0AB093CC0A0E94B21389E0C1
:1018600090E00E94FB126EEF74E0C7010E9498099D
:101870008823E1F05801C12CD12C6EEF74E0C70130
:101880000E94B209B6010E94B906F50181939193B5
:101890005F01FFEFCF1ADF0A22E1C216D10469F718
:1018A0004CE650E064E0C8010E94551468E075E021
:1018B000C7010E9498098823E1F05801C12CD12C5E
:1018C00068E075E0C7010E94B209B6010E94B9063E
:1018D000D5018D939D935D01BFEFCB1ADB0AE2E149
:1018E000CE16D10469F740E750E064E0C8010E94D9
:1018F000551467E475E0C7010E9498098823E1F058
:101900005801C12CD12C67E475E0C7010E94B209CF
:10191000B6010E94B906D5018D939D935D01BFEF7D
:10192000CB1ADB0AE2E1CE16D10469F744E250E0BB
:1019300062E0C8010E94551463E375E0C7010E948C
:1019400098098823E1F05801C12CD12C63E375E09C
:10195000C7010E94B209B6010E94B906D5018D9354
:101960009D935D01BFEFCB1ADB0AE2E1CE16D104F5
:1019700069F744E750E064E0C8010E94551462E151
:1019800075E0C7010E949809882309F442C04DB64A
:101990005EB6D8011196FC92EE9282E195E0139624
:1019A0009C938E931297C8010E94C1093C01880F35
:1019B000991FEDB7FEB7E81BF90B0FB6F894FEBF01
:1019C0000FBEEDBF2DB73EB72F5F3F4F5901490105
:1019D000C12CD12C6C147D0481F062E175E0C7014B
:1019E0000E94B209B6010E94B906D4018D939D935D
:1019F0004D01BFEFCB1ADB0AEDCF24E730E044E026
:101A0000B301C5010E94EC130FB6F8945EBE0FBE81
:101A10004DBE68E175E0C7010E9498098823F1F185
:101A20004DB65EB6F801F182E08288E195E09383DD
:101A30008283C8010E94C1093C01880F991F2DB7FC
:101A40003EB7281B390B0FB6F8943EBF0FBE2DBF13
:101A50008DB79EB701965C014C01C12CD12C6C1442
:101A60007D0481F068E175E0C7010E94B209B6010A
:101A70000E94B906D4018D939D934D01BFEFCB1AFF
:101A8000DB0AEDCF2CE630E044E0B301C5010E9453
:101A9000EC130FB6F8945EBE0FBE4DBE60E275E06B
:101AA000C7010E9498098823F1F14DB65EB6F8018E
:101AB000F182E08280E295E093838283C8010E94F4
:101AC000C1093C01880F991F2DB73EB7281B390B60
:101AD0000FB6F8943EBF0FBE2DBF8DB79EB70196CF
:101AE0005C014C01C12CD12C6C147D0481F060E2AE
:101AF00075E0C7010E94B209B6010E94B906D4017F
:101B00008D939D934D01BFEFCB1ADB0AEDCF20E7FC
:101B100030E044E0B301C5010E94EC130FB6F89425
:101B20005EBE0FBE4DBE68E275E0C7010E94980917
:101B30008823F1F14DB65EB6F801F182E08288E2C9
:101B400095E093838283C8010E94C1093C01880FFC
:101B5000991F2DB73EB7281B390B0FB6F8943EBF1F
:101B60000FBE2DBF8DB79EB701965C014C01C12CF5
:101B7000D12C6C147D0481F068E275E0C7010E94ED
:101B8000B209B6010E94B906D4018D939D934D010F
:101B9000BFEFCB1ADB0AEDCF24E230E042E0B30125
:101BA000C5010E94EC130FB6F8945EBE0FBE4DBE89
:101BB0006EE275E0C7010E949809882309F4A2C06B
:101BC0000E94B2138EEF8093C30A89E18093C40A06
:101BD0001092C50A82E88093C60A84E88093C70AF7
:101BE0001092C80A84E08093C90A1092CA0AEBECEA
:101BF000FAE081E081938F5F8331E1F70E94B213B5
:101C000089E190E00E94FB120E94CF120E9485128F
:101C10008DEC9DE0DE01A15BBC4F9D012C5D3F4F33
:101C2000BD01FC0141915191CF014D935D932A1764
:101C30003B07B9F784E2FB01ADE9B3E0AC0FBD1F90
:101C4000169601900D928A95E1F78EE4FE01E35617
:101C5000FC4FDE01AF5FBC4F01900D928A95E1F71A
:101C6000C8010896D80113969C938E93129782EA26
:101C700090E015969C938E93149717961C921E9243
:101C8000169786E792E08D939C93C8010E94990A6B
:101C90005C01FC0180819181892B11F40E94530524
:101CA0006BE375E0C5010E94350A3C019E012F5F80
:101CB0003C4F6901490134E2830E911CC3010E942B
:101CC000760A009741F0D60116966D917C91179790
:101CD00002960E943705B2E0CB0ED11C8C149D04F5
:101CE00069F786EE97E0F801918380831382128270
:101CF000B801C5010E94F2066CEC74E086EE97E034
:101D00000E94AF0362E475E0C7010E94980988232E
:101D100009F4A2C00E94B2138EEF8093C30A89E136
:101D20008093C40A1092C50A82E88093C60A84E6AA
:101D30008093C70A1092C80A82E08093C90A109261
:101D4000CA0AEBECFAE081E081938F5F8331E1F71F
:101D50000E94B21389E190E00E94FB120E94CF1210
:101D60000E9485128DEC9DE0DE01A551BC4F9D01C6
:101D70002C5D3F4FBD01FC0141915191CF014D932D
:101D80005D932A173B07B9F784E2FB01A1E0B3E0BA
:101D9000AC0FBD1F9A9601900D928A95E1F78EE4E3
:101DA000FE01EF5FFC4FDE01A15BBC4F01900D9285
:101DB0008A95E1F7C8010896D80113969C938E93F3
:101DC000129782EA90E015969C938E93149717963B
:101DD0001C921E92169786E792E08D939C93C80101
:101DE0000E94990A5C01FC0180819181892B11F488
:101DF0000E9453056FE475E0C5010E94350A3C015D
:101E00009E01215B3C4F6901490134E2830E911C24
:101E1000C3010E94760A009741F0D6019A966D910F
:101E20007C919B9702960E943705B2E0CB0ED11CA5
:101E30008C149D0469F786EE97E0F8019183808306
:101E400013821282B801C5010E94F2066CEC74E0A4
:101E500086EE97E00E94AF0366E575E0C7010E9439
:101E60009809882309F499C06091A10A7091A20A87
:101E70008091A30A9091A40A0E94B61B4B015C01B9
:101E80006091A50A7091A60A8091A70A9091A80A6C
:101E90000E94B61B6B017C0160919D0A70919E0AA5
:101EA00080919F0A9091A00A0E94B61BD8011196BA
:101EB0007C936E9313969C928E9212971596DC9259
:101EC000CE9214978FE493E08C0F9D1F0896CF5A03
:101ED000DC4F99838883C155D3408AE290E0CD5A84
:101EE000DC4F99838883C355D340CB5ADC4F19828A
:101EF0001882C555D34086E792E0C15BDC4F9983D9
:101F00008883CF54D340CE01815B9C4F0E94990AB5
:101F10007C01FC0180819181892B11F40E94530581
:101F20006EE575E0C7010E94350A5C016801F6E0C4
:101F3000CF0ED11C84E0882E912CC5010E94760A18
:101F4000009761F0D8014D915C9160E070E0FC0178
:101F50009382828244835583668377830E5F1F4F0B
:101F60000C151D0551F786EE97E0C15BDC4F998398
:101F70008883CF54D340CF5ADC4F19821882C15581
:101F8000D340BE01615B7C4FC7010E94F2066CEC3E
:101F900074E086EE97E00E94AF030FB6F8943EBE61
:101FA0000FBE2DBEC25FDB4F0FB6F894DEBF0FBE73
:101FB000CDBFDF91CF911F910F91FF90EF90DF90F8
:101FC000CF90BF90AF909F908F907F906F905F90D9
:101FD0004F903F902F9008952FB7F89480917E05F1
:101FE00090917F05A0918005B09181052FBF8093CE
:101FF000EE079093EF07A093F007B093F10786EEFA
:1020000097E00E94300297FF26C02FB7F894809186
:102010007E0590917F05A0918005B09181052FBF2D
:102020004091EE075091EF076091F0077091F10732
:10203000841B950BA60BB70B4091EA075091EB0759
:102040006091EC077091ED0784179507A607B70715
:10205000B0F28FEF9FEF08950E94751F362F90E02A
:10206000FC01EE51FD4F4491FC01E456FD4F2491DB
:10207000FC01EA5AFD4F9491992309F46CC0442362
:1020800009F455C050E0FA013197E231F10508F04A
:102090004EC08827E658FF4F8F4F0C94B41A80919A
:1020A00080008F7707C0809180008F7D03C0809172
:1020B0008000877F809380003AC084B58F7702C00C
:1020C00084B58F7D84BD33C08091B0008F7703C00D
:1020D0008091B0008F7D8093B00029C080919000E6
:1020E0008F7707C0809190008F7D03C08091900012
:1020F000877F809390001BC08091A0008F7707C0DE
:102100008091A0008F7D03C08091A000877F809385
:10211000A0000DC0809120018F7707C08091200121
:102120008F7D03C080912001877F80932001E92F5C
:10213000F0E0EE0FFF1FE45CFD4FA591B4919FB757
:10214000F894311104C08C912095282302C0EC91A1
:102150002E2B2C939FBF0895863308F086539091C1
:102160007B00282F2870977F922B90937B0087709D
:10217000806480937C0080917A00806480937A00F0
:1021800080917A0086FDFCCF8091780020917900C3
:1021900090E0922B08953FB7F89480918305909139
:1021A0008405A0918505B091860526B5A89B05C03C
:1021B0002F3F19F00196A11DB11D3FBFBA2FA92FC6
:1021C000982F8827820F911DA11DB11DBC01CD0143
:1021D00042E0660F771F881F991F4A95D1F708952F
:1021E0001F920F920FB60F9211242F933F938F934C
:1021F0009F93AF93BF9380917E0590917F05A091AF
:102200008005B09181053091820523E0230F2D37A1
:1022100020F40196A11DB11D05C026E8230F0296EA
:10222000A11DB11D2093820580937E0590937F05AB
:10223000A0938005B09381058091830590918405DA
:10224000A0918505B09186050196A11DB11D8093D1
:10225000830590938405A0938505B0938605BF916F
:10226000AF919F918F913F912F910F900FBE0F9043
:102270001F901895CF93DF93CDB7DEB7D2500FB62E
:10228000F894DEBF0FBECDBF20E032E0E8E7F2E019
:10229000DE01119601900D9221503040D9F7DC01FA
:1022A000680F791F80E090E0A617B707A1F02D9185
:1022B000582F4427E92FFF27E227EE0FFF1F81E069
:1022C00090E08C0F9D1FE80FF91F20813181CA011A
:1022D00082279327E9CFDE5F0FB6F894DEBF0FBEEB
:1022E000CDBFDF91CF9108954F925F926F927F9211
:1022F0008F929F92AF92BF92CF92DF92EF92FF9216
:10230000CF93DF9387E30E94AC10EC0186E30E9439
:10231000AC10BC01990F880B990B0E9461196B01DD
:102320007C0188E30E94AC10BC01990F880B990BCB
:102330000E9461194B015C01BE01DD0F880B990BF6
:102340000E94611929E23CE54FE65FEB0E94EA1B1F
:1023500022E538E646E256E40E94C01920E030E06B
:1023600040E251E40E94D01A2B013C0120E030E011
:1023700046E153E40E94E51B18164CF040926D0AAA
:1023800050926E0A60926F0A7092700A0CC080E0E0
:1023900090E0A6E1B3E480936D0A90936E0AA09357
:1023A0006F0AB093700A29E23CE54FE65FEBC70184
:1023B000B6010E94EA1B22E538E646E256E40E9496
:1023C000C01920E030E040E251E40E94D01A6B01D5
:1023D0007C0120E030E046E153E40E94E51B181642
:1023E0004CF0C092710AD092720AE092730AF09295
:1023F000740A0CC080E090E0A6E1B3E48093710A17
:102400009093720AA093730AB093740A29E23CE590
:102410004FE65FEBC501B4010E94EA1B22E538E6F6
:1024200046E256E40E94C01920E030E040E251E468
:102430000E94D01A6B017C0120E030E046E153E4B9
:102440000E94E51B18164CF0C092750AD092760ACD
:10245000E092770AF092780A0CC080E090E0A6E162
:10246000B3E48093750A9093760AA093770AB093A9
:10247000780ADF91CF91FF90EF90DF90CF90BF90DF
:10248000AF909F908F907F906F905F904F90089546
:10249000FC01A089B18982E08C93A485B5851C924A
:1024A000A685B78581E08C93108EA489B58986E0D6
:1024B0008C93A289B3898C9180618C93A289B38912
:1024C0008C9188608C93A289B3898C9180688C935D
:1024D0000288F389E02D80818F7D80830895CF93DA
:1024E000DF93EC01BC0184E090E00E94030A0097B6
:1024F00041F0FC01D183C08313821282DF91CF911E
:102500000895DF91CF910C94A009EDEFFAE045E535
:102510005DE080E090E0668177816535710521F5A9
:1025200064817581672B01F560857185672BE1F406
:1025300060817181DC01AA0FBB1FAF59B24F6D934F
:102540007C9362857385DC01AA0FBB1FAD59B24F26
:102550006D937C9364857585DC01AA0FBB1FAB5915
:10256000B24F6D937C93039632964E175F0799F6A0
:10257000E1E6FDE04DEC5DE0A081B181AA0FBB1F5B
:10258000A553B24F348120E082819381822B932B1B
:102590008D939C9336964E175F0771F708950F93AE
:1025A0001F93CF93DF93C3E0DBE007E810E0809157
:1025B000C10A9091C20ADC01ED91FC910084F18581
:1025C000E02D1995181619068CF48091C10A909186
:1025D000C20ADC01ED91FC910284F385E02D19958E
:1025E000F8013197F1F789939993E1CFDF91CF917A
:1025F0001F910F9108954F925F926F927F92AF92C9
:10260000BF92CF92DF92EF92FF920F931F93CF93DF
:10261000DF93CDB7DEB73C01ADB6BEB680915F0D9E
:1026200087FD03C061E00E942E1087E0860DC82E52
:10263000D12C8DB79EB78C199D090FB6F8949EBF0B
:102640000FBE8DBF0DB71EB70F5F1F4F8FEFADB71A
:10265000BEB711968C93F80181838DEF828313822C
:10266000A3ECBAE03496E12CF12C6E147F0434F024
:102670008D9181932FEFE21AF20AF7CFB6016250E3
:102680007109C8010E943A11F801EE0DFF1D848303
:1026900095837801C701801B910B8C159D057CF4F7
:1026A0008091C10A9091C20AD7016D917D01DC0130
:1026B000ED91FC910190F081E02D1995EBCFF8940C
:1026C0008091C8008076803659F08091C10A90913F
:1026D000C20ADC01ED91FC910680F781E02D19958D
:1026E00080915F0D87FD03C060E00E942E107894FA
:1026F0000E94CB102B013C018AE0C82ED12CE12C8A
:10270000F12C0E94CB10DC01CB0184199509A6099C
:10271000B709883E9340A105B10598F3B1E0CB1A03
:10272000D108E108F108E8EE4E0EE3E05E1E611C00
:10273000711CC114D104E104F10419F70FB6F89427
:10274000BEBE0FBEADBEDF91CF911F910F91FF9026
:10275000EF90DF90CF90BF90AF907F906F905F90A1
:102760004F9008958091C10A9091C20ADC01ED91C9
:10277000FC910284F385E02D1995019699F708954F
:10278000CF93DF93EA012796EEEFE093C30AC0935D
:10279000C40AD093C50AE3E8E093C60A8093C70A47
:1027A0009093C80A2093C90A3093CA0AABECBAE0E6
:1027B000FB01CF01861B970B841795071CF48191B1
:1027C0008D93F7CF0E94B213CE010E94FB1280E0DE
:1027D00090E0DF91CF9108958F929F92AF92BF9238
:1027E000CF92DF92EF92FF921F93CF93DF93982EB9
:1027F000A92E142F690188248394840E76956795F9
:10280000B62E869EC02D11240C2E000CDD0BCE01A1
:102810000E946F1D7C01882D880C990BF701A92D52
:10282000BA2D20E030E04B2DBB0C550B241735079B
:10283000C4F46C91608312968D909C901397818262
:10284000123048F09282143031F4092C000CAA089E
:10285000BB08B382B4822F5F3F4FE80FF91F149675
:10286000E5CF212F30E0AE01B701C6010E94C013B1
:10287000E114F10471F0C701DF91CF911F91FF9036
:10288000EF90DF90CF90BF90AF909F908F900C947F
:10289000071EDF91CF911F91FF90EF90DF90CF90B7
:1028A000BF90AF909F908F900895AF92BF92CF92BC
:1028B000DF92EF92FF920F931F93CF93DF935C0110
:1028C000162F6A0101E0060FC2E10C9FC02D1124F2
:1028D0000C2E000CDD0BCE010E946F1D7C01202F01
:1028E000000F330BFC01A50161E06083DA018D91DB
:1028F0009D91AD018183123048F09283143031F400
:10290000092E000CAA0BBB0BB383B4836F5FE20FDD
:10291000F31F633151F7212F30E0AE01B701C6013B
:102920000E94C013E114F10469F0C701DF91CF9157
:102930001F910F91FF90EF90DF90CF90BF90AF90DD
:102940000C94071EDF91CF911F910F91FF90EF9094
:10295000DF90CF90BF90AF900895AF92BF92CF928B
:10296000DF92EF92FF920F931F93CF93DF9300D0EC
:1029700000D0CDB7DEB78C016B017C0182E0E80EA0
:10298000F11CC7010E94B005D8011296ED91FC918F
:10299000139780818B3521F08B3709F44FC059C0D4
:1029A000F80186818823F1F18150868380819181AD
:1029B0000E946F125C016BE5C7010E94F20588233B
:1029C00089F16DE5C7010E94F205811125C01A82C7
:1029D0001982BE016F5F7F4FC8010E94AD1488232A
:1029E00009F1C5010E94760ADC01892BD9F096E035
:1029F000FE013196129601900D929A95E1F76DE5E0
:102A0000C7010E94F205811107C06CE2C7010E9454
:102A1000F2058111DCCF06C0F80186818F5F8683C5
:102A2000C50102C00E94A009DC012D913C91232B1D
:102A300011F4F12C30C026E030E026C0C8010E941D
:102A4000AF0ADC012D913C91232B99F327E030E074
:102A50001BC0FF24F394873219F0823209F0F12C65
:102A6000C8010E940806009721F3FF2059F022E0D8
:102A700030E0D60111963C932E9313969C938E933F
:102A8000129709C021E030E0F6013183208393835F
:102A90008283FF24F3948F2D26960FB6F894DEBF21
:102AA0000FBECDBFDF91CF911F910F91FF90EF909F
:102AB000DF90CF90BF90AF900895CF93DF93CDB7C5
:102AC000DEB7A2970FB6F894DEBF0FBECDBF7894E5
:102AD00084B5826084BD84B5816084BD85B5826023
:102AE00085BD85B5816085BD80916E0081608093D4
:102AF0006E0010928100809181008260809381003D
:102B0000809181008160809381008091800081604C
:102B1000809380008091B10084608093B1008091A7
:102B2000B00081608093B0008091910082608093BA
:102B3000910080919100816080939100809190003C
:102B40008160809390008091A10082608093A100B9
:102B50008091A10081608093A1008091A00081609C
:102B60008093A00080912101826080932101809157
:102B700021018160809321018091200181608093F7
:102B8000200180917A00846080937A0080917A009D
:102B9000826080937A0080917A00816080937A00CD
:102BA00080917A00806880937A001092C10086EE4E
:102BB00097E00E94481287E895E00E94481286EE4E
:102BC00097E00E94CB0287E895E00E94CB0287E85D
:102BD00095E09093C20A8093C10A82E080935F0DD2
:102BE000EEE9F2E02491E8E5F2E08491882399F09F
:102BF00090E0880F991FFC01EE5DFD4FA591B49107
:102C0000FC01E45CFD4F859194918FB7F894EC91B1
:102C1000E22BEC938FBF81E090E0A0E0B0E08093E6
:102C2000FB0D9093FC0DA093FD0DB093FE0D2FB7FF
:102C3000F89480917E0590917F05A0918005B091D8
:102C400081052FBF8093FF0D9093000EA093010E7E
:102C5000B093020E81E08093030E1092040E42E3C3
:102C600050E060E070E04093F10D5093F20D6093FE
:102C7000F30D7093F40D9FB7F89440917E05509139
:102C80007F0560918005709181059FBF4093F50D90
:102C90005093F60D6093F70D7093F80D8093F90D36
:102CA0001092FA0D0E9474118091450A9091460A83
:102CB000A091470AB091480A8F87988BA98BBA8B4D
:102CC00020914D0A30914E0A40914F0A5091500A7E
:102CD0006091490A70914A0A80914B0A90914C0A7E
:102CE0000E94C0196B8B7C8B8D8B9E8B05E41AE048
:102CF000212C312CD80198964D905D906D907C9050
:102D00009B97A30192016F85788989899A890E948E
:102D1000C0192B893C894D895E890E94D11A4B01CB
:102D20005C01F80164AB75AB86AB97ABE05CFF4F21
:102D300080E090E0A0E8BFE380839183A283B38327
:102D40009C01AD01D8015C966D917D918D919C9116
:102D50005F970E94D11A9B01AC0160E070E080E8AF
:102D60009FE30E943D1B6B017C01F801E45BFF4F78
:102D700060837183828393833C96F88FEF8BA501E8
:102D80009401C301B2010E94D01AA70196010E94CA
:102D9000C019A50194010E94D11AAF89B88D6D9315
:102DA0007D938D939C9313975801B4E6AB0EB11CA1
:102DB000A701960160E070E080E89FE30E94D01ACE
:102DC000F5016083718382839383FFEF2F1A3F0A9B
:102DD0000C5F1F4F83E02816310409F08BCF8BEF77
:102DE0009DE00E940B05882309F4CCC14091FF0DA2
:102DF0005091000E6091010E7091020E8091FB0DBA
:102E00009091FC0DA091FD0DB091FE0D840F951FCA
:102E1000A61FB71F8093FF0D9093000EA093010E85
:102E2000B093020E91E09093030E1092040E188658
:102E30001F821A8619861C861B8640E050E060EBD4
:102E400074E0CE0107960E9484038091FF07909161
:102E500000082091010830910208821B930B9170A9
:102E6000892B09F47CC01A8219821C821B821E8263
:102E70001D8240E050E060EB74E0CE0101960E94BC
:102E800084030E94EC0F97FD1EC08A309105D9F093
:102E90008D871E860D811E810F5F1F4FB801CE01E9
:102EA00001960E945D03882361F329813A818D8117
:102EB0009E81BE01635F7F4F820F931F0E948C1F14
:102EC0001E830D83DECF8F8198850097A9F06981DD
:102ED0007A816115710571F049855A852D813E8190
:102EE0004217530738F00E948C1F8D819E819C876A
:102EF0008B8710C00E94071E89819A8198878F83D3
:102F00008B819C819A8789878D819E819C878B8705
:102F10001A82198289819A810E94071E1A82198257
:102F20001C821B821E821D826F817885611571054E
:102F300031F04B855C85CE0101960E948403CE0161
:102F400001960E942C0B89819A810E94071E40E005
:102F500050E060EB74E0CE0107960E9484038F81FD
:102F600098850E94071E81EF9DE00E940B05882333
:102F700009F408C14091F50D5091F60D6091F70DDF
:102F80007091F80D8091F10D9091F20DA091F30DDB
:102F9000B091F40D840F951FA61FB71F8093F50DF8
:102FA0009093F60DA093F70DB093F80DA1E0A093C8
:102FB000F90D1092FA0D0E9474118091450A9091BA
:102FC000460AA091470AB091480A8F87988BA98B2F
:102FD000BA8B20914D0A30914E0A40914F0A509180
:102FE000500A6091490A70914A0A80914B0A909167
:102FF0004C0A0E94C0196F8F78A389A39AA3C0902E
:10300000510AD090520AE090530AF090540A05E415
:103010001AE0212C312CD801A85ABF4FBA8FA98FA2
:103020002D913D914D915C916F85788989899A891F
:103030000E94C0192F8D38A149A15AA10E94D11A0E
:103040002B013C01F80164AB75AB86AB97ABA701D4
:1030500096010E94C0196B8F7C8F8D8F9E8FF80117
:10306000E059FF4F6083718382839383C8018C5939
:103070009F4F988F8F8BDC012D913D914D915C91ED
:103080006F85788989899A890E94C0192F85388926
:1030900049895A890E94C019F801208931894289D9
:1030A00053890E94D11A6B8B7C8B8D8B9E8BF80180
:1030B000E05CFF4F60837183828393839B01AC014B
:1030C000C701B6010E94C0194B015C019B01AC0114
:1030D000C701B6010E94C019D8015C962D913D919F
:1030E0004D915C915F970E94D11A9B01AC01C50183
:1030F000B4010E943D1B4B015C01F801E45BFF4FF2
:1031000060837183828393832B8D3C8D4D8D5E8D87
:10311000F80160A571A582A593A50E94D01AA5010A
:1031200094010E94C019A30192010E94D11AA98D95
:10313000BA8D6D937D938D939C931397A501940104
:10314000C701B6010E94C0199B01AC0160E070E0AC
:1031500080E89FE30E94D01A2B893C894D895E89C3
:103160000E94C019EF89F88D6083718382839383F5
:10317000FFEF2F1A3F0A0C5F1F4F83E02816310420
:1031800009F049CF0E94ED022ACEE7E8F5E013826C
:10319000128248EE53E060E070E04483558366831A
:1031A000778384E994E09183808325ED30E035874F
:1031B000248724ED30E03787268720ED30E0318BFF
:1031C000208B21ED30E0338B228B22ED30E0358BEC
:1031D000248B26ED30E0378B268B128E118E148EC9
:1031E000138E158E168EE6EEF7E01382128244835C
:1031F0005583668377839183808385EC90E0958700
:10320000848784EC90E09787868780EC90E0918BB0
:10321000808B81EC90E0938B828B82EC90E0958B9D
:10322000848B86EC90E0978B868B128E118E148E99
:10323000138E158E168EE5E4FAE080E090E0A0E8AB
:10324000BFE380839183A283B383148215821682A5
:10325000178280879187A287B38784879587A687FF
:10326000B7878CE0E8E7F4E0A5E5BAE001900D92BD
:103270008A95E1F78CE0E4E8F4E0A1E6BAE0019099
:103280000D928A95E1F78FEF80935F0D81E0809337
:10329000600DEBEFFDE01086148215821682178216
:1032A0001186E1EFFDE010861482158216821782E6
:1032B000118608950E949C1908F481E00895E8940D
:1032C00009C097FB3EF490958095709561957F4F6E
:1032D0008F4F9F4F9923A9F0F92F96E9BB2793951C
:1032E000F695879577956795B795F111F8CFFAF42C
:1032F000BB0F11F460FF1BC06F5F7F4F8F4F9F4F5D
:1033000016C0882311F096E911C0772321F09EE8BA
:10331000872F762F05C0662371F096E8862F70E020
:1033200060E02AF09A95660F771F881FDAF7880FFA
:103330009695879597F90895990F0008550FAA0B50
:10334000E0E8FEEF16161706E807F907C0F01216B8
:103350001306E407F50798F0621B730B840B950BBB
:1033600039F40A2661F0232B242B252B21F4089510
:103370000A2609F4A140A6958FEF811D811D0895AD
:103380000E94D3190C94441A0E94361A38F00E94F5
:103390003D1A20F0952311F00C942D1A0C94331A39
:1033A00011240C94781A0E94551A70F3959FC1F35A
:1033B000950F50E0551F629FF001729FBB27F00DE3
:1033C000B11D639FAA27F00DB11DAA1F649F662738
:1033D000B00DA11D661F829F2227B00DA11D621F87
:1033E000739FB00DA11D621F839FA00D611D221F41
:1033F000749F3327A00D611D231F849F600D211D25
:10340000822F762F6A2F11249F5750409AF0F1F0A7
:1034100088234AF0EE0FFF1FBB1F661F771F881F10
:1034200091505040A9F79E3F510580F00C942D1A01
:103430000C94781A5F3FE4F3983ED4F38695779521
:103440006795B795F795E7959F5FC1F7FE2B880FB6
:10345000911D9695879597F9089597F99F6780E84C
:1034600070E060E008959FEF80EC089500240A94D6
:103470001616170618060906089500240A9412164F
:103480001306140605060895092E0394000C11F482
:10349000882352F0BB0F40F4BF2B11F460FF04C02F
:1034A0006F5F7F4F8F4F9F4F089557FD9058440F88
:1034B000551F59F05F3F71F04795880F97FB991F93
:1034C00061F09F3F79F08795089512161306140650
:1034D000551FF2CF4695F1DF08C0161617061806DD
:1034E000991FF1CF86957105610508940895E894B8
:1034F000BB2766277727CB0197F9089597FB072EFF
:1035000016F4009407D077FD09D00E94BC1A07FC7E
:1035100005D03EF4909581959F4F089570956195E3
:103520007F4F0895A1E21A2EAA1BBB1BFD010DC0FF
:10353000AA1FBB1FEE1FFF1FA217B307E407F50763
:1035400020F0A21BB30BE40BF50B661F771F881F3F
:10355000991F1A9469F760957095809590959B01D5
:10356000AC01BD01CF010895EE0FFF1F881F8BBF77
:103570000790F691E02D1994AA1BBB1B51E107C0DF
:10358000AA1FBB1FA617B70710F0A61BB70B881FF3
:10359000991F5A95A9F780959095BC01CD01089582
:1035A0005058BB27AA270E94E81A0C94441A0E947C
:1035B000361A38F00E943D1A20F039F49F3F19F472
:1035C00026F40C94331A0EF4E095E7FB0C942D1AB4
:1035D000E92F0E94551A58F3BA1762077307840738
:1035E000950720F079F4A6F50C94771A0EF4E0957F
:1035F0000B2EBA2FA02D0B01B90190010C01CA01AD
:10360000A0011124FF27591B99F0593F50F4503E57
:1036100068F11A16F040A22F232F342F4427585F49
:10362000F3CF469537952795A795F0405395C9F761
:103630007EF41F16BA0B620B730B840BBAF0915019
:10364000A1F0FF0FBB1F661F771F881FC2F70EC0B8
:10365000BA0F621F731F841F48F48795779567958B
:10366000B795F7959E3F08F0B0CF9395880F08F077
:103670009927EE0F9795879508950E94511B0C94FA
:10368000441A0E943D1A58F00E94361A40F029F45C
:103690005F3F29F00C942D1A51110C94781A0C9458
:1036A000331A0E94551A68F39923B1F3552391F305
:1036B000951B550BBB27AA2762177307840738F0A1
:1036C0009F5F5F4F220F331F441FAA1FA9F335D0FE
:1036D0000E2E3AF0E0E832D091505040E695001CB2
:1036E000CAF72BD0FE2F29D0660F771F881FBB1F6C
:1036F000261737074807AB07B0E809F0BB0B802D4A
:10370000BF01FF2793585F4F3AF09E3F510578F075
:103710000C942D1A0C94781A5F3FE4F3983ED4F37E
:10372000869577956795B795F7959F5FC9F7880F49
:10373000911D9695879597F90895E1E0660F771F9B
:10374000881FBB1F621773078407BA0720F0621B2C
:10375000730B840BBA0BEE1F88F7E09508950E9457
:10376000B61B6894B1110C94781A08950E945D1AE2
:1037700088F09F5798F0B92F9927B751B0F0E1F032
:10378000660F771F881F991F1AF0BA95C9F714C0E2
:10379000B13091F00E94771AB1E008950C94771A35
:1037A000672F782F8827B85F39F0B93FCCF386951B
:1037B00077956795B395D9F73EF490958095709578
:1037C00061957F4F8F4F9F4F08950E949C1908F479
:1037D0008FEF0895FA01EE0FFF1F30962105310596
:1037E000A1F16115710561F48038BFE39B0749F1D0
:1037F00068949038810561F08038BFEF9B0741F0F5
:1038000099234AF5FF3FE1053105210519F1E894B7
:103810000894E795D901AA2329F4AB2FBE2FF85FAE
:10382000D0F310C0FF5F70F4A695E0F7F73950F0C1
:1038300019F0FF3A38F49F779F930DD00F9007FC53
:103840009058089546F00C94331A60E070E080E8D8
:103850009FE308954FE79F775F934F933F932F9395
:103860000E94E51C2F913F914F915F910E94C019DA
:103870000C94421C29F416F00C942D1A0C94771A0F
:103880000C94331A0E945D1AA8F39638A0F707F833
:103890000F92E8942BE33AEA48EB5FE70E94D619CF
:1038A0000F920F920F924DB75EB70F920E942D1D8F
:1038B000E8E1F1E00E94741C4F915F91EF91FF915C
:1038C000E595EE1FFF1F49F0FE57E0684427EE0F15
:1038D000441FFA95E1F74195550B0E94A71C0F90E4
:1038E00007FE0C949B1C0895DF93CF931F930F93B7
:1038F000FF92EF92DF927B018C01689406C0DA2E72
:10390000EF010E94D319FE01E894A591259135910C
:1039100045915591A6F3EF010E94E81AFE01970127
:10392000A801DA9469F7DF90EF90FF900F911F9153
:10393000CF91DF9108959B01AC0160E070E080E8D9
:103940009FE30C943D1B0C942D1A0C94611D0E9456
:103950005D1AD8F39923C9F3940F511DA3F3915025
:10396000504094F059F0882332F0660F771F881F7B
:1039700091505040C1F79E3F51052CF7880F911D83
:103980009695879597F908955F3FACF0983E9CF027
:10399000BB27869577956795B79508F4B1609395A1
:1039A000C1F7BB0F58F711F460FFE8CF6F5F7F4F8F
:1039B0008F4F9F4FE3CF0C94781A16F00C94611D33
:1039C0000C94331A68940C942D1A0E945D1AA8F373
:1039D0009923C1F3AEF3DF93CF931F930F93FF921D
:1039E000C92FDD2788232AF02197660F771F881FAC
:1039F000DAF720E030E040E85FEB9FE3883920F021
:103A0000803E38F021968F770E94D11AE0E4F1E0F1
:103A100004C00E94D11AEDE6F1E00E94741C8B01F3
:103A2000BE01EC01FB2E6F5771097595771F880B4E
:103A3000990B0E94611928E132E741E35FE30E949C
:103A4000D319AF2D9801AE01FF900F911F91CF9127
:103A5000DF910E94E81A0C94441AFA01DC01AA0FC3
:103A6000BB1F9B01AC01BF5728F4222733274427F3
:103A7000507820C0B75190F4AB2F0024469537956D
:103A80002795011CA395D2F3002071F0220F331F5C
:103A9000441FB395DAF30ED00C94D01A613071053F
:103AA000A0E88A07B94630F49B01AC016627772766
:103AB00088279078309621F0208331834283538386
:103AC00008959F3F31F0915020F487957795679541
:103AD000B795880F911D9695879597F908950F933F
:103AE0001F93CF93DF938230910510F482E090E032
:103AF000E091070EF091080E20E030E0A0E0B0E089
:103B0000309719F14081518102811381481759077B
:103B1000C8F08417950769F4109731F012960C934A
:103B2000129713961C9327C00093070E1093080E4C
:103B300022C02115310519F04217530718F49A01D4
:103B4000BD01EF01DF01F801DBCF21153105F9F0EF
:103B5000281B390B2430310580F48A819B81611543
:103B6000710521F0FB019383828304C09093080EBA
:103B70008093070EFE01329644C0FE01E20FF31F50
:103B80008193919322503109398328833AC020913F
:103B9000050E3091060E232B41F420910202309144
:103BA00003023093060E2093050E209100023091FF
:103BB00001022115310541F42DB73EB740910402B1
:103BC00050910502241B350BE091050EF091060E75
:103BD000E217F307A0F42E1B3F0B2817390778F0E4
:103BE000AC014E5F5F4F2417350748F04E0F5F1F43
:103BF0005093060E4093050E8193919302C0E0E02E
:103C0000F0E0CF01DF91CF911F910F910895CF93F5
:103C1000DF93009709F481C0FC013297138212826E
:103C2000A091070EB091080E109781F42081318188
:103C3000820F931F2091050E3091060E2817390729
:103C400051F5F093060EE093050E67C0ED0120E0FC
:103C500030E0CE17DF0740F44A815B819E014115B9
:103C60005105F1F0EA01F5CFD383C2834081518140
:103C7000840F951FC817D90759F488819981840F3B
:103C8000951F0296918380838A819B81938382838F
:103C90002115310529F4F093080EE093070E3DC07D
:103CA000E901FB83EA8349915991C40FD51FEC17B1
:103CB000FD0761F480819181840F951F0296E901CF
:103CC00099838883828193819B838A83E0E0F0E0FB
:103CD00012968D919C911397009719F0FD01DC01CC
:103CE000F7CF8D919C9111979D012E5F3F4F820FD1
:103CF000931F2091050E3091060E2817390769F49D
:103D0000309729F41092080E1092070E02C0138209
:103D10001282B093060EA093050EDF91CF91089505
:103D20006F927F928F929F92AF92BF92CF92DF92CB
:103D3000EF92FF920F931F93CF93DF93009789F435
:103D4000CB01DF91CF911F910F91FF90EF90DF900A
:103D5000CF90BF90AF909F908F907F906F900C947A
:103D60006F1DFC01E60FF71F9C0122503109E2177D
:103D7000F30708F4A9C0EC01D9010D911C9111972A
:103D800006171707B0F00530110508F49BC0C801ED
:103D900004978617970708F495C002501109061B6F
:103DA000170B019311936D937C93CF010E94071E13
:103DB00089C05B01A01AB10A4C01800E911EA0912E
:103DC000070EB091080E612C712CE12CF12C10978C
:103DD00009F446C08D919C911197A815B905B1F5CC
:103DE0006C0142E0C40ED11CCA14DB0478F14C0112
:103DF0008A189B08640142E0C40ED11C1296BC9044
:103E000012971396AC91B5E0CB16D10440F0B28274
:103E1000A38391828082D9016D937C9309C00E5F48
:103E20001F4F800F911FF90191838083EB2DFA2F93
:103E3000E114F10431F0D7011396FC93EE9312973D
:103E400041C0F093080EE093070E3CC06816790657
:103E500008F43C017D0112960D90BC91A02DB7CFC6
:103E60008091050E9091060E88169906E1F466166B
:103E70007706C8F48091000290910102009741F406
:103E80008DB79EB74091040250910502841B950B9B
:103E9000E817F907C8F4F093060EE093050EF90150
:103EA000718360830FC0CB010E946F1D7C0100975E
:103EB00059F0A801BE010E947A1FCE010E94071E80
:103EC000C70104C0CE0102C080E090E0DF91CF9135
:103ED0001F910F91FF90EF90DF90CF90BF90AF9028
:103EE0009F908F907F906F90089581E090E0F8947C
:103EF0000C94931FFB01DC0102C001900D92415014
:103F00005040D8F70895FB01DC018D910190801994
:103F10000110D9F3990B0895FB01DC0101900D927A
:0A3F20000020E1F70895F894FFCFA8
:103F2A000000090E80000000803FCDCCCC3D6F120E
:103F3A00833A95BFD6337D1D9026B3CE010CCDCCE6
:103F4A00CC3D0AD7233C17B7D13877CC2B3295957D
:103F5A00E6241FB14F0A000020410000C842004079
:103F6A001C4620BCBE4CCA1B0E5AAEC59D7401002D
:103F7A00010001000100010001000100010001002F
:103F8A00010001000100010001000100010001001F
:103F9A000100000000003703000005800F800A00BE
:103FAA001B801E0014001180338036003C003980CB
:103FBA0028002D8027802200638066006C006980BB
:103FCA0078007D8077807200500055805F805A00AB
:103FDA004B804E0044004180C380C600CC00C9809B
:103FEA00D800DD80D780D200F000F580FF80FA008B
:103FFA00EB80EE00E400E180A000A580AF80AA007B
:10400A00BB80BE00B400B180938096009C0099806A
:10401A0088008D8087808200838186018C01898156
:10402A0098019D8197819201B001B581BF81BA0142
:10403A00AB81AE01A401A181E001E581EF81EA0132
:10404A00FB81FE01F401F181D381D601DC01D98122
:10405A00C801CD81C781C201400145814F814A0112
:10406A005B815E0154015181738176017C01798102
:10407A0068016D8167816201238126012C012981F2
:10408A0038013D8137813201100115811F811A01E2
:10409A000B810E0104010181038306030C030983CA
:1040AA0018031D8317831203300335833F833A03B2
:1040BA002B832E0324032183600365836F836A03A2
:1040CA007B837E0374037183538356035C03598392
:1040DA0048034D8347834203C003C583CF83CA0382
:1040EA00DB83DE03D403D183F383F603FC03F98372
:1040FA00E803ED83E783E203A383A603AC03A98362
:10410A00B803BD83B783B203900395839F839A0351
:10411A008B838E0384038183800285828F828A0245
:10412A009B829E0294029182B382B602BC02B98239
:10413A00A802AD82A782A202E382E602EC02E98229
:10414A00F802FD82F782F202D002D582DF82DA0219
:10415A00CB82CE02C402C182438246024C02498209
:10416A0058025D8257825202700275827F827A02F9
:10417A006B826E0264026182200225822F822A02E9
:10418A003B823E0234023182138216021C021982D9
:10419A0008020D8207820202CDCCCC3ECDCCCC3EA9
:1041AA00CDCCCC3E0000204100002041000020413F
:1041BA00000000007E02C9012102CB02F301300295
:1041CA004A0222225C5C6208660C6E0A720D74094D
:1041DA00006E756C6C006372656174654F626A6526
:1041EA0063742829206661696C6564000D0A00748D
:1041FA007275650066616C7365004E614E00652DCF
:10420A0000496E66696E697479007265626F6F74CF
:10421A0000746F7271756500706F735F3100617041
:10422A00726F665F616C6C007670726F665F616C4C
:10423A006C00706F735F6E006170726F665F6E0004
:10424A007670726F665F6E0070776D5F6E00726572
:10425A0061645F706F735F616C6C0073725F706F23
:10426A007300726561645F70776D5F616C6C007377
:10427A00725F70776D00726561645F4952004952DE
:06428A005F64697374001B
:00000001FF
